:020000040800F2
:10000000E80B0020C50100080D380008693200081F
:1000100000000000000000000000000000000000E0
:100020000000000000000000000000002B3D000860
:100030000000000000000000293D00082D3D0008E0
:10004000D701000800000000D7010008D701000810
:10005000D7010008D7010008D7010008D701000820
:1000600000000000D7010008D7010008D7010008F0
:10007000D7010008D7010008D701000800000000E0
:10008000D70100080000000000000000D7010008B0
:1000900000000000D7010008D7010008D7010008C0
:1000A000D7010008D7010008D7010008D7010008D0
:1000B000D701000800000000000000000000000060
:1000C00000F002F800F053F80CA030C808382418EB
:1000D0002D18671EA246AB4654465D46AC4201D180
:1000E00000F045F87E460F3EB6460FCC012633425F
:1000F00000D0FB1A3343A246AB461847585B0000BA
:10010000785B0000103A02D378C878C1FAD8520759
:1001100001D330C830C101D504680C6070470000BD
:100120000023002400250026103A01D378C1FBD813
:10013000520700D330C100D50B60704710B5662957
:1001400002D105F0AFF810BD642902D100F094F897
:1001500010BD002010BD1FB500F0E0FE040000201F
:10016000002104F083FFE0601FBD10B510BD01F059
:100170008BFA1146FFF7EFFF04F0D0FB01F0A3FA72
:1001800003B4FFF7F2FF03BC01F0A6FA70B5054611
:100190000C46164602E00FCC0FC5103E102EFAD2C8
:1001A000082E02D303CC03C5083E042E07D301CC8E
:1001B00001C5361F03E021782970641C6D1C761E72
:1001C000F9D270BD0748804707480047FEE7FEE7C1
:1001D000FEE7FEE7FEE7FEE704480549054A064B51
:1001E00070470000353D0008C1000008E805002008
:1001F000E80B0020E8070020E80700200FB41CB53A
:10020000084B06AA7B4469460090059800F059FE09
:1002100004460020694600F067FE20461CBC08BC6E
:1002200004B01847E10C000070B504468569006809
:10023000C10601D5302600E02026C00707D070BDDA
:1002400062683046A1689047206A401C20626D1E9B
:10025000F6D570BD70B5044685690078C00707D132
:1002600070BD6268A16820209047206A401C20620F
:100270006D1EF6D570BD0000F7B500257529106814
:10028000009914A611D0C046C046002802DA4042A8
:1002900011A608E0009909688A0701D50FA602E0B7
:1002A000490704D50EA6012501E0C046C046009FBF
:1002B0000024243704E000F01CFE30313955641C62
:1002C0000028F8D12B4632462146009800F091FBD9
:1002D000FEBD0000000000002D0000002B0000000B
:1002E00020000000F3B50446002081B020622046C3
:1002F000E1688847002872D0252802D06268A1688A
:10030000ABE0594F00267F442046E168884720280B
:10031000054608DB312D06D27819203800780028F0
:1003200001D00643F0E7B00701D504208643002042
:10033000E0610746A0612A2D0AD0284604F08EFE0F
:10034000002827D0B8000019303D0090856119E0E1
:100350000298BA00121902C8916102902046E16821
:100360008847012F054617D1E06900281FDA2020B1
:1003700086431CE000980A2180694843009940198F
:10038000303888612046E1688847054604F066FEFB
:100390000028EFD1012F0AD02E2D08D12046E16888
:1003A00088470546202006437F1C022FC3DBA06937
:1003B000002803DA4042A06101200643F00701D083
:1003C000102086436C2D0BD0682D09D04C2D3CD0CD
:1003D0006A2D38D0742D38D07A2D36D016E040E012
:1003E000E1682F4620468847B842054609D16C2F60
:1003F00029D001208002E16806432046884705464F
:1004000004E06C2F1DD0FF2001300643002D28D0C2
:1004100028464138192803D80120C0020643203558
:10042000204626602946029A1646FFF787FE0028D6
:1004300010D001280BD0F61DF008C0000830029043
:1004400055E74020E1E78020D5E70020D3E7361DBF
:1004500002964CE762682846A1689047206A401CD3
:1004600044E7206AFEBD0000AA4F0000F8B5042A48
:100470002CD3830712D00B78491C0370401C521EEA
:1004800083070BD00B78491C0370401C521E830756
:1004900004D00B78491C0370401C521E8B079B0F25
:1004A00005D0C91ADF002023DE1B08C90AE0FFF7C8
:1004B0006DFEF8BD1D4608C9FD401C46B4402C43E6
:1004C00010C0121F042AF5D2F308C91A521EF0D424
:1004D0000B78491C0370401C521EEAD40B78491C4F
:1004E0000370401C012AE4D409780170F8BD01E0D2
:1004F00004C0091F0429FBD28B0701D50280801C90
:10050000C90700D00270704700290BD0C30702D082
:100510000270401C491E022904D3830702D50280C1
:10052000801C891EE3E70022EEE70022DFE70000DF
:1005300082078B079A423FD170B5920F0AD00324ED
:1005400002780B78401C491C002A33D09A4231D1E2
:100550002042F5D1214EF40104C808C9951B9543EA
:10056000254018D19A420FD104C808C9951B95435C
:10057000254010D19A4207D104C808C9951B95435C
:10058000254008D19A42E7D012BA1BBA01209A42FC
:1005900000D2404270BD12BA1BBA2DBA1824100006
:1005A000E0401900E140401A05D12E00E64002D19A
:1005B000083CF4D1D01A70BD02780B78401C491C5D
:1005C000002A09D09A4207D102780B78401C491CB6
:1005D000002A01D09A42EFD0D01A704701010101E0
:1005E000002203098B4273D3030A8B4258D3030BB7
:1005F0008B423CD3030C8B4221D312E003460B43C6
:100600007FD4002243088B4274D303098B425FD30B
:10061000030A8B4244D3030B8B4228D3030C8B4237
:100620000DD30902FF2212BA030C8B4202D312121D
:10063000090265D0030B8B4219D300E0090AC30BF2
:100640008B4201D3CB03C01A5241830B8B4201D39F
:100650008B03C01A5241430B8B4201D34B03C01A88
:100660005241030B8B4201D30B03C01A5241C30A00
:100670008B4201D3CB02C01A5241830A8B4201D371
:100680008B02C01A5241430A8B4201D34B02C01A5B
:100690005241030A8B4201D30B02C01A5241CDD200
:1006A000C3098B4201D3CB01C01A524183098B424B
:1006B00001D38B01C01A524143098B4201D34B0134
:1006C000C01A524103098B4201D30B01C01A524197
:1006D000C3088B4201D3CB00C01A524183088B421E
:1006E00001D38B00C01A524143088B4201D34B0007
:1006F000C01A5241411A00D2014652411046704779
:100700005DE0CA0F00D04942031000D3404253407D
:100710009C46002203098B422DD3030A8B4212D33D
:100720008901FC2212BA030A8B420CD3890192116F
:100730008B4208D3890192118B4204D389013AD0AC
:10074000921100E08909C3098B4201D3CB01C01A81
:10075000524183098B4201D38B01C01A5241430994
:100760008B4201D34B01C01A524103098B4201D382
:100770000B01C01A5241C3088B4201D3CB00C01AEF
:10078000524183088B4201D38B00C01A5241D9D207
:1007900043088B4201D34B00C01A5241411A00D288
:1007A00001465241104663465B1001D34042002B84
:1007B00000D54942704763465B1000D3404201B503
:1007C0000449002802DC491C084000E00846C046F5
:1007D000C04602BDFFFFFF7F7047704770470000B3
:1007E0000121C9050123411842001B06D3185B0EE5
:1007F0000AD0C1100722D206891840075242D142BE
:1008000001D5520089187047090208D50146002A0F
:1008100003D0C10FC907002070471046704742023D
:1008200002D0002002497047072109050143F4E77F
:100830000000F87FF0B5FF252D04C609C209FF2787
:1008400004462E400137CB093E4348402A402B4006
:100850000746002A6BD0002B69D0AA4267D0AB4272
:1008600065D0002800DA32460125ED0529432C43E6
:1008700009022002090AD21A4B0C7F24E31A434CC6
:10088000000A7C44E35C7D242404121914145B00E8
:10089000A218884201D3521C00E0400049420C4695
:1008A0005C4324115C43DB016415E318040A5C43D8
:1008B000C502200D0C4644436419250A5D432303F9
:1008C000EC0C0D46654300030019EB184C42A342A3
:1008D00001D35B18401CD4052018002B07D05B0007
:1008E000C91804D3401C002901D1400840003F2111
:1008F00089048A4209D3002A08DC1106090F04D0B2
:10090000032149074018C00FC007F0BD0122410074
:10091000120689187F2252069142F6D20521490714
:10092000C84201D59010F0BDFF20C005F0BD002FDA
:1009300000DA32461648AA4207D2AB4205D2190263
:10094000090E17D0F80FC007F0BDFF2563002D0674
:10095000AB42F9D84900A942F6D8AB4201D1A9422D
:10096000F2D0A94201D1002101E061004908D0057F
:100970000843F0BD1102090EFBD0FF200243D00551
:10098000F0BD0A460146104654E700003F4A000009
:100990000000C07F1F22030C02D10F2200041CD0D4
:1009A000030E01D10002083A030F01D10001121F0A
:1009B000830F01D18000921E002801DB4000521EEF
:1009C000D2055118021251181922904004D3491C23
:1009D000002801D14908490008467047C10FC907DE
:1009E00000D04042012292071143D3E70121890739
:1009F000D0E7FFB504460D4681B024300090216851
:100A0000880604D51022E0699143216000E00120AE
:100A1000A84201DD471B00E000270498A1697A196C
:100A20001018081AA0612078C00602D42046FFF7EB
:100A3000FBFB002608E003986268A168805D904790
:100A4000206A401C761C206204988642F3DB2078E2
:100A5000C0060AD52046FFF7E7FB06E06268A168FA
:100A600030209047206A401C206238467F1E0028B4
:100A7000F4DC07E000986268A168405D9047206A56
:100A8000401C206228466D1E0028F3DC2046FFF73C
:100A9000E1FB2078000602D5022005B0F0BD012060
:100AA000FBE70000FFB50C461E468FB003CA089056
:100AB00009914F007D0D00D16D1E002108460020D8
:100AC000C0460321099A89050840002A03DA8200FA
:100AD000801840080840800D01280A9002DD00209F
:100AE000C0430A90089807430DD0F048F0492818F1
:100AF00048430714189800281DD07542291E1DDD93
:100B00000A9842421BE01898012802D000203021A8
:100B100004E00020F24305E02154401CB042FBDB1E
:100B200030460022189B002121540F998B600A60E7
:100B3000486013B0F0BDBD1B6D1CDFE70A9A0029A9
:100B400000DA69420BA800F06FFA0BAB07CB03ABDE
:100B500007C30899099800F0D3FA6B4607C301460A
:100B6000D4480918002D00910BDDD24903980A9A48
:100B700049424018002303A90390684600F030FD65
:100B800008E003990A9A0023081803A9039068460D
:100B900000F0D0FC6B4607C30004000C03D000201B
:100BA000C043410800E01046189A002A03D00022F2
:100BB000009215461EE0751E05D400F0B3F93032E0
:100BC00062556D1EF9D501220843079602D0002216
:100BD0007F1C04E02078302801D100227F1E002AEB
:100BE000069787D01EE0112D07DA00F09BF930320E
:100BF00062556D1C02460A43F5D1084303D00098A4
:100C0000002819D00EE00021681E05E0235C625C1C
:100C100063542254401E491C8142F7DBA81B401E2E
:100C200007950690079A18990020A0540F98079BE3
:100C3000069A81600CC07CE711260020189059E7C5
:100C4000D21DF0B50D460446D10893B0C90003C9C2
:100C50000C900D9104F0ECF902460D98C00F01D0F4
:100C60002D2007E02068810701D52B2002E04007F6
:100C7000C00F4001032A0F9001D0072A05DB03466D
:100C80002946204600F08CF90EE12078800601D537
:100C9000E76900E006272846652D04D0662814D0B1
:100CA000672D69D12DE00020112F009001DB112369
:100CB00000E07B1C0CAA03A910A8FFF7F3FE119912
:100CC000002610987D1C0E9142E001203B460CAAA4
:100CD000C0070B900120009003A910A8FFF7E2FEC7
:100CE000119D12981099002600280E9501D1781CAC
:100CF0000D18781B02D446427D1C761EE81B00901E
:100D00003AE0012F00DA01270020112F009001DDC9
:100D1000112300E03B460CAA03A910A8FFF7C2FE6E
:100D200011993D46109800260E91217809070BD4A1
:100D30000E99A94200DA0D4603A9012D04DD4A19D6
:100D4000203AD27F302A06D0B84201DA011D04DAF7
:100D5000012100910FE06D1EEFE7002802DC8619EB
:100D60002D1A03E0411CA94200DD0D46801B401CEA
:100D700000900120C0070B902078000705D4009850
:100D8000A84202DB0020C043009069460020C872E0
:100D90000B98012102AF0337C907884225D00220F2
:100DA00010902B2011900B9800280BDA40420B90EA
:100DB0002D20119006E00B9800F09BF830317F1E3B
:100DC0000B9039701099481E00291090F3DC0B9895
:100DD0000028F0D111987F1E38702088000501D5B9
:100DE000452000E065207F1E387001A8C01BC01D93
:100DF0000B900F98002800D0012041190098C017CF
:100E000009180B980818A169081A401EA0612078DB
:100E1000C00602D42046FFF707FA0F98002805D035
:100E20006268A1689047206A401C20622078C00652
:100E300025D52046FFF7F8F921E0002E07DB0E98B4
:100E4000B04204DD03A86268805DA16802E06268C8
:100E5000A16830209047206A761C401C20620098D0
:100E6000401E002800900AD100F058F8C06862685F
:100E70000168405CA1689047206A401C20622846B7
:100E80006D1E0028D9DC07E062683878A1687F1CF5
:100E90009047206A401C20620B99481E00290B9045
:100EA000F2DC2046FFF7D6F9032042E601FCFFFF03
:100EB000104D0000E1DFFFFF01694A1C0261087864
:100EC000704700B58FB0029100210591054901934B
:100ED00079440391114604906846FFF703FA0FB076
:100EE00000BD0000E5FFFFFF0A681070521C0A6099
:100EF000704701468008081A02091018020A1018E3
:100F0000020C1018C008820012185200891A01E061
:100F1000401C0A390A29FBD270470000004870477C
:100F2000300000200B4670B5024689078008084350
:100F300019469D08141AA9412509080705430809FF
:100F40002C194841250A01060D43010A2C1941417B
:100F5000200C0D0428430D0C00194D4100214019AF
:100F60004D41C00869070843E908840F8D002543F7
:100F7000840024184D4124196D41121BAB4107E038
:100F80000925ED432C11521963410024401C614195
:100F90001C460A250026551BB441F1D270BD000045
:100FA000F8B51F46044601230068DB02032601460C
:100FB0001840072A05DB002801D017A506E017A571
:100FC00004E0002801D016A500E016A510208143FA
:100FD0002160A069C01E002FA06101D0401EA06149
:100FE0002046FFF721F9002F09D038466268A16832
:100FF0009047206A401C2062C01C206206E0206AE4
:10100000FAE762682878A1686D1C9047761EF8D2CE
:101010002046FFF71FF9F8BD4E414E006E616E008D
:10102000494E4600696E6600F7B516468AB03348E9
:1010300078446C4603467C33C06F5A689B680DC485
:101040002E487844763003AC0DC80DC43720C0015B
:10105000081837211B30FFF7D1FA05460C46803DB2
:101060001B3C02D56442012000E0002000270990CB
:1010700010E0E0070CD00C20204978437944324638
:101080004C3941186846012300F054FA6B4607C3F7
:1010900064107F1C002CECD1184F7F442E3F16E0CB
:1010A000E80712D02001C0190EC8069108930792D4
:1010B0000068F04201D1981908903246012306A930
:1010C00003A800F037FA03AB07C36D10641C002DB2
:1010D000E6D10998002806D032466946012303A8C4
:1010E00000F07EFA05E001233246694603A800F0CD
:1010F00021FA0A9B07C30DB0F0BD0000D4420000E6
:10110000034640000A4610B5400D0BD00121C90727
:101110000F24A40200191C0364082143540D214329
:10112000D20207E000210120F2E7D40F4900214359
:101130005200401E0029F8DADB0FDB07184310BD10
:10114000FFB50D46144685B04868516803F057FF57
:1011500000910190A868A16803F051FF02910390EB
:10116000A868616803F04BFF029A1218824202924B
:1011700001D2012000E00020019A0B18D2180028AB
:10118000019202D08A4202D903E08A4201D20120B0
:1011900000E000200099081800906868A16803F03A
:1011A0002EFF029A12188242029201D2012000E020
:1011B0000020019A0B18D2180028019202D08A420E
:1011C00002D903E08A4201D2012000E00020009908
:1011D0000818009028682168400049004008490824
:1011E0004018FA49471814E001994000C90F084314
:1011F0000090019802994000C90F0843019002989D
:1012000003994000C90F08430290039840007F1ED5
:10121000039000980028E7DA0898002801D0EC4EE7
:1012200000E00026B74201DA012000E0002000289B
:1012300004902AD0F71BF806C00E15D0029B20217F
:10124000091A039A8B401A430392029A019BC240E7
:101250008B401A430292019A009BC2408B40009936
:101260001A430192C14000917B110DD06F460320BB
:10127000C11A03D500218200B95003E08A00810021
:10128000BA587A50401EF3D5374603980299002881
:1012900000D00120014308980291002808460CD094
:1012A000002800D001200199019A49050843012135
:1012B000D20AC902D202019200E001210E9B012252
:1012C000D207012B02D0002B03D013E0002807D156
:1012D00020E0904204D890420CD1019B0B4209D0EF
:1012E000019B5918019105D10099491C009101D128
:1012F0007F1C009200280DD0102108460020C04617
:101300000498002806D00F98002803D0082108462A
:101310000020C04628682168019B009A4840C10F00
:101320000598C90739430EC009B0F0BDFFB587B0B5
:10133000099A08980899536892684068896896469F
:101340000022039317469446089A12685300099A9C
:101350005B081268520052089A1A9E4BD4180A9AD7
:10136000002A01D0352200E040220692002201230B
:1013700015460492DB07059324E0002D05D1754640
:101380000346039E4D1BB34109D375466646039B36
:10139000491B049D9841059B7519AC465F41634606
:1013A0003B4308D0059B049EDD0776082E435B086F
:1013B0000496059301E0521E641EC50FED074918FF
:1013C0004041521C069B9A42D7DB002D04D1754642
:1013D000039A6B1A824101D203200CE0039A0B4658
:1013E0006B404240134303D0014303D0012002E08D
:1013F000022000E000206146019100210097029147
:101400000A99002905D0614640020143704B0191C1
:1014100002E08007002302909C4201DA012000E0F4
:10142000002007003AD01A1BD006C00E15D0029D2E
:101430002021019C091AC5408C402543029C8C4008
:1014400000D001242543019C0295009DC4408D409D
:1014500000992C430194C140009154111DD06D4658
:101460000221002202290CD10320001B07E00028E2
:1014700004DB8600AE59002E00D00122401C032858
:10148000F5DB081B02D588002A5004E080002858AC
:1014900010438A00A850491EE3D51C460A9800282C
:1014A00002980CD0002800D001200199019A49052A
:1014B00008430121D20AC902D202019200E00121AF
:1014C000109B0122D207012B02D0002B03D013E086
:1014D000002807D11FE0904204D890420CD1019B14
:1014E0000B4209D0019B5918019105D10099491C63
:1014F000009101D1641C009200280CD010210846F4
:101500000020C046002F06D01198002803D00821E3
:1015100008460020C04608980999019A009B006877
:1015200009684840C10F0798C907214382600AC073
:101530000BB0F0BD00B585B0019300920A4601469C
:10154000002302A8FFF7FCFD02A807C805B000BDF4
:10155000FFB50A461F4685B0079901930123009104
:10156000014602A8FFF7ECFD02990398049ECA0FFA
:101570004900D20700920F22490892028C1A0021DA
:10158000002800DB0C46450013486D08844214D344
:10159000079A002A04DA441E0026104DF64302E0A2
:1015A00004460D460E46102108460020C046002F76
:1015B00003D0042108460020C0462005E90A08435C
:1015C000009908436905F20A1143ADE602C0FFFF26
:1015D000013C0000FF3F0000FF070000FFFFFF7F0E
:1015E00000B585B0019300920A460146002302A887
:1015F000FFF79CFE02A807C8A8E7FFB50A461F46EA
:1016000085B00799019301230091014602A8FFF7D5
:101610008DFE02990398049ECA0F4900D2070092DA
:101620000F22490892028C1A0021002800DB0C4688
:10163000450011486D08844214D3079A002A04DA41
:10164000441E00260D4DF64302E004460D460E46AC
:10165000102108460020C046002F03D00421084670
:101660000020C0462005E90A08430099084369059F
:10167000F20A114358E60000FF070000FFFFFF7F5A
:1016800000487047100000207546FFF7F9FFAE468E
:10169000050069465346C008C000854618B020B50D
:1016A000FEF79AFD60BCB64600260027C0C5C0C53F
:1016B000C0C5C0C5C0C5C0C5C0C5C0C5403D49083E
:1016C00049008D46704710B50446C046C0462046C6
:1016D000FEF756FD10BD000001491820ABBEFEE725
:1016E0002600020070470000F0B581B005460024D6
:1016F000009400688168C9071AD181682C4A2F328A
:10170000114208D0A86D10210143A965E86D01249C
:101710002043E8650CE08168254A114001273943E0
:101720008160D0480068000205D4687E012825D178
:10173000204601B0F0BDCF480068CF4903F064FBFC
:10174000401C009000980028EFD00098401E0090A8
:1017500000980028E9D00098401E009000980028CA
:10176000E3D00098401E009000980028DDD000983B
:10177000401E009000980028E7D1D6E700F068FCF2
:10178000064628680168C907D2D18168C90704D113
:101790008168074A11403943816000F059FC811B80
:1017A00028680329EED30168C907EBD1AAE7C04630
:1017B000E8FFFF7FEFF3108072B6FEE7F0B589B067
:1017C000002508955422825C012A03D10224204678
:1017D00009B0F0BD0646543601243470026893689F
:1017E0005B0714D404694B68022B18D1042004430E
:1017F0009A4884426FD19848C0430B68D94301434B
:10180000906A084090620024002B75D567E0816DD6
:1018100020220A4382653570204609B0F0BD079644
:101820000693042634438C4B8C4FBC4268D10F681E
:101830003B40906A18439062380253698343896839
:10184000014087480840184350610024002F04D409
:10185000079E3570204609B0F0BD012681483B4601
:10186000076807208205394611407F48029383426A
:1018700000D08CE0F0053B46034000D087E0794F74
:101880003B6893431943014339607A4800687A49B9
:1018900003F0BAFA0C2141430C3108910898002852
:1018A000D6D0079E0898401E08900898002823D09C
:1018B0000898401E0890089800281DD00898401EDF
:1018C00008900898002817D00898401E089008989B
:1018D0000028E7D110E00B680024002B0CD5F84855
:1018E0000168624A93426ED0614A93426ED05E4A6A
:1018F000934201D1052267E03570204609B0F0BD62
:10190000029605951F27069C27400F2500950397F3
:10191000BD40046E0195AC4304940F681F424ED045
:10192000FB07059D2C4663D1BB075CD47B075CD4C9
:101930003B075CD4FB06029C5AD4BB066BD47B06E7
:101940006BD43B066BD4FB056BD40297BB056AD402
:10195000029B5B056AD4029B1B056AD4029BDB04D5
:101960006AD4029B9B046AD4029B5B046AD4029FE4
:101970003B04009C059D3BD4FB0366D4029B9B0368
:1019800066D4029F7B03DB1712241C4019E0374802
:10199000029B834203D130063B46034008D03448C3
:1019A000029B834200D053E7B005074000D04FE7C9
:1019B000C34F3B68934319430143396048E77B00B9
:1019C000DC0E059D14E00322920501E00322D205FE
:1019D000114007229205036893435918016035703E
:1019E000204609B0F0BD012402E0022400E00324F7
:1019F000039EB440049B1C430466069B9B08C0697D
:101A0000984200D818E70198C043936A0340B80091
:101A1000000FB0400EE70524EAE70624E8E70724B4
:101A2000E6E70824E4E70924029FCAE70A24029FA4
:101A3000C7E70B24029FC4E70C24029FC1E70D24D3
:101A4000029FBEE70E24029FBBE71024029FB8E767
:101A50001124029FB5E7C046FFFF07000400008085
:101A600000FFFF0708270140001000B0004000B849
:101A7000002000B408000020400D03000068006C46
:101A800070470000F0B587B0044600200690002C97
:101A900075D00590A06D002807D125465435204605
:101AA00000F010F900202870E06501273D07266846
:101AB000B068C00027D4B0687C4901402943B160B8
:101AC0007B4800687B4903F09FF94000801C06902A
:101AD0000698002817D00698401E06900698002801
:101AE00011D00698401E0690069800280BD0069844
:101AF000401E06900698002805D00698401E0690C5
:101B000006980028E7D1B068284208D1A06D1021BE
:101B10000143A165E06D012105910843E065B068CE
:101B200004210140A26D102002405118A26D29D15C
:101B300003900F20C3430493F33B1A40921CA26509
:101B4000B268D2076DD1029027462037226B531E10
:101B50009A411503A268237E9B031343627ED1033F
:101B60001943A27E50030843E36803432B4301213A
:101B7000C8072569002D009009DA854308E0012097
:101B800007B0F0BD0243A265384607B0F0BD4D0571
:101B90002B43387B45001D43387801280AD1002AA1
:101BA0007DD0A06D0A4620210143A1651146E06D5C
:101BB0001043E065626A002A019105D00720800188
:101BC00002402A43A56A1543F0683B490140294376
:101BD000F16003208207656828461040E36C0343E8
:101BE000387F012807D12746403783CF03430B4373
:101BF0003B43019803433069304901401943316147
:101C00000098854202990CD095420AD0019880072D
:101C1000854206D08804054029490A688243501944
:101C20000860706907229043656B28437061706992
:101C300070218843A16B0901014371612769012368
:101C40005805874205D0002F0ED1B06A0499084389
:101C500009E0B06AE06980001C301C210140049F4B
:101C60008F40206E3843B06270691040A8420AD19C
:101C70000020E065A06D0121014302208143A165A0
:101C8000059807B0F0BDA06D039908430221884371
:101C9000A065E06D1843E065184607B0F0BD080484
:101CA0000543626A002A019188D18DE7E8FFFF6F42
:101CB00008000020400D03000102DEFF02FCFF1FB0
:101CC0000827014010B586B00021059104910068F5
:101CD000104A904201D006B010BD012002050E4B03
:101CE000DC681443DC60DC6814400094009A1A68D5
:101CF00002431A601A680240009203910320029086
:101D00001B20019005200007009901A900F0B2F8FE
:101D100006B010BD0024014034100240F0B581B07F
:101D20000D4604464069082801D1082704E02068D0
:101D3000C068C00755D1042700F08AF9064621681B
:101D4000086838421CD001204202A36D1343A365EA
:101D5000CA681205920F54D1A27E002A51D10A6896
:101D600012074ED58A68520742D4224658324B6831
:101D70000C25AB434B60FF2502351368AB433EE0B7
:101D8000681C2AD0002D0CD100F062F92168086887
:101D900038420FD008683842F6D0D4E70868384295
:101DA000D1D100F055F9801B2168A842F6D9086806
:101DB0003842F3D1542000212154A06D0421014365
:101DC000A165032001B0F0BD08683842BBD10868A6
:101DD0003842B8D108683842B5D108683842F3D0E3
:101DE000B1E7A06D20210143A165012001B0F0BD44
:101DF000A26D20231343A36522465C32E36D0343A7
:101E00001360227E0020002A01D001B0F0BD0C2218
:101E10000A6001B0F0BD000070B50446006881683A
:101E2000022049070ED45421615C01290AD02546BD
:101E3000543501262E702046FFF756FC002802D0AC
:101E40000021297070BDA06D0849014030020818BA
:101E5000A0650020E06521681C220A6028708A685D
:101E6000034B13401A1D8A6070BDC046FEF0FFFF91
:101E7000E8FFFF7FF0B58CB00B916A4A904201D029
:101E8000052200E0032200920B990F68002F00D179
:101E9000C6E00123002635460293099608960A906B
:101EA00013E03A43614802600A980B9A17683A4671
:101EB000DA40361D08355B1C0999891C099108997F
:101EC000491C0891002A00D1AAE0591E029C0791E2
:101ED0008C402740E9D0069505960B9A5168032659
:101EE0000D4635406A1E012A04911BD80322099928
:101EF0008A400A98806890430B9EF6688E4006439D
:101F00000A9886600498C006C00F079988400A9E08
:101F10007668A64306430A984660D4430A9808990F
:101F200049000BE0324609998A40D443032D05D17C
:101F3000099903913546059E049923E0C2680194EE
:101F400022400B9CA4688C401443C460022D039172
:101F500015D11C20059E30400F2282400799CC08E5
:101F6000A4000A9D2C19256A95430B990A698240A1
:101F70002A4322620A98496803250D4001E0059E24
:101F80000499019C039A9540026822402A4302600A
:101F90008A03920F069D88D0182028400F2585407F
:101FA0000322079991430A9A1F4C6618346EAC437A
:101FB000603605252D07AA4208D0FD4DAA4207D05C
:101FC0001B4DAA42009D04D1022502E0002500E03D
:101FD0000125854025433560134802680B98406809
:101FE000C40201D53A4300E0BA43059E069D0E4C5B
:101FF00022606268840201D53A4300E0BA430A4C89
:1020000062600A4A5268840301D53A4300E0BA4349
:10201000064C62602268C00300D542E7BA4341E73C
:102020000CB0F0BD000C00500018024080180240B7
:102030000008005000690840411E88417047002A8E
:1020400002D018228150704728228150704700002A
:10205000DC4800687047C046B0B502464120135CBA
:102060000220202B19D1134640331C78012C14D0A8
:1020700024205870106802680124A24302602203E1
:1020800005689543056002680A43026001682143C0
:1020900001600020187020215970B0BDB0B5024613
:1020A0004120135C0220202B19D1134640331C78A9
:1020B000012C14D024205870106802680124A24317
:1020C00002600F221202056895430902294301604C
:1020D0000168214301600020187020215970B0BDB3
:1020E000F0B581B0002822D0044605464035687816
:1020F000002804D100202870204600F02BF924206D
:1021000068702068026801218A4302600F2212066B
:1021100063689343036183681C4A13408360A36828
:10212000E668012E06D1CE03334383600CE0012024
:1021300001B0F0BD2127BF023B438360022E03D1D3
:10214000CB0246681E4302E0CB0246689E434660CF
:1021500043680F4E1E434660C3681340C360226944
:1021600063691343A26912021A43C260E269236AD7
:102170001343036002680A43026000206064202168
:1021800069702063A87001B0F0BDC046FF7FFFFFFB
:1021900000800002F0B587B01C46054641202B5C4C
:1021A0000220202B00D0B3E02B4640331E78012EB6
:1021B00000D1ADE0029203910120059306901870C2
:1021C000FFF746FF074628688169090417D42121D3
:1021D000059A517010219170002169646C85029CF0
:1021E0006C6201916963012106914B06698D090AB0
:1021F000049322D0FF2129850122120622E00698AD
:10220000C60302E081693142E1D0192128463A46ED
:1022100001F02CF800286FD1FFF71AFFC11B2868C6
:102220001A29EFD381693142ECD0686C2021084330
:102230006864059C6170012075E0698D298500291D
:102240001A4675D023788362631C6B624B1E2B8504
:102250006B8D5B1E6B853A4B039E1E40C9B2090411
:102260003446891911430C9E4268364B13400B4388
:1022700006994903194341600DE0698D29852A6853
:102280005068314B1840C9B209040919121D049B4A
:10229000084318431060688D002830D02846314626
:1022A0003A4601F063F9002826D12868696A0A785D
:1022B0008262688D401E6885481C6862288D401EB9
:1022C0002885698D0029E6D00004E4D1009780219B
:1022D00000222846334601F089F800280CD1688D89
:1022E000000ACAD0FF20288528684168164A114094
:1022F000021D2046154BCBE7069807B0F0BD2846D7
:1023000031463A4601F0EFF80028059C069801D0C6
:1023100007B0F0BD28682021C16142680C4B134012
:1023200043606170019800212170A17007B0F0BD79
:102330000349039A0A4014461146194393E7C046DD
:10234000FF030000009800FC009C00FC0000FF015F
:1023500000E800FEB0B586B000681349884201D09D
:1023600006B0B0BD114C20680221084320602068EF
:102370000840009006200590002004901220029052
:10238000032080020190009801250395084801A9C7
:10239000FFF770FDA805A1680143A160A168014095
:1023A0000091009806B0B0BD0058004034100240C3
:1023B000000400501F48007802490A68101808609D
:1023C0007047C046E405002010B5012420020849EA
:1023D0000A6802430A60032000F00CF8002801D0CC
:1023E000204610BD00F028F80024204610BDC0464D
:1023F0000020024070B50F4E31780124002916D01C
:1024000005467D20C00002F0FFFC014643480068FD
:1024100002F0FAFC00F0A6FC032D08D8002806D133
:102420000024E0432946224600F01CF8756020464F
:1024300070BDC0460000002082B0094841680122FA
:1024400011434160416811400191019911070268EF
:102450000A430260006808400090009802B070478C
:102460003C100240002805D40322034693430C4A43
:102470009A1806E00F220240083A03239A43074BBA
:10248000D2188007C00E8901C9B28140FF23834062
:1024900010689843084310607047C0461CED00E088
:1024A00000E400E0F0B581B0032569021A4E32461F
:1024B000143A13688B430343136001246102002222
:1024C000884226D1F34801683068400521D5009242
:1024D000A70206204843124902F096FC201A02285F
:1024E00016D0316839420FD0012811D031683942F5
:1024F0000AD000280CD03168394205D0001D0328CD
:1025000006D031683942EAD1009A104601B0F0BDD8
:102510002A46104601B0F0BD1470004008000020AB
:1025200040420F00F0B587B081788907584F01D439
:10253000002650E00590012319073A46203A10681A
:102540000840049006D110680843106010680840E5
:10255000069006980292039101931E024D4C20684A
:1025600030432060FFF774FD0546206830420AD1F1
:10257000FFF76EFD401B0228F7D903260598049942
:10258000002923D027E003200546010238680840CF
:1025900011D00599496988420BD03868019909041E
:1025A0003A680A433A603A688A433A603A490840CE
:1025B0003860C0075AD13A683748024005984169E7
:1025C0001143396000260499002904D1029B19683F
:1025D000039A914319600568E90705D1A9060DD44E
:1025E00001216A0416D42BE0394608390A6803230E
:1025F0009A43436813430B60A906F1D503210903ED
:102600003A46083A13688B438168194311600121E7
:102610006A0415D53A46083A1368204C23400C4604
:1026200031460669334313601C4A521C96420E46DB
:10263000214605D10A043B46503B1C6814431C60EC
:102640002A0510D58D03032292033B46083B1C68E4
:102650009443C26814431C60AA4204D10804503F4A
:10266000396801433960304607B0F0BDFFF7F0FC30
:102670000646864C386880079DD4FFF7E9FC801B2E
:10268000A042F7D905982E46049900299ED0A2E7CA
:102690005C10024000700040FFFCFFFFFFFFFF3FA7
:1026A000F0B583B00D46012100281BD001910290A6
:1026B0007548006807242040A84216D2724908686D
:1026C000A04328430860714EFFF7C2FC07466E48DE
:1026D00000682040A84208D0FFF7BAFCC01BB042F7
:1026E000F5D90321084603B0F0BD029E306881078A
:1026F000924B0CD5410703D521031A680A431A608F
:102700000F2109021A688A43B16811431960C00792
:102710001BD15D4800682040A8422CD95A4908685E
:10272000A04328430860594FFFF792FC06465648DD
:1027300000682040A8421ED0FFF78AFC801BB842E8
:10274000F5D90321084603B0F0BD0298406803287C
:102750005DD8810001A251588F46C0466D27000800
:10276000132800081D2800082728000819460839E2
:102770000968490559E0029A107840076F4B05D562
:10278000200319688143D0680843186018688006E0
:10279000400F22D01A6838210A406948082A23D0FD
:1027A0001A680A40102A5ED1596803220A40032A97
:1027B00000D0644859684906490F491C02F024FBBF
:1027C0005E4949684904490E48435C494968490FD4
:1027D000491C02F019FB594B06E0184608380068FE
:1027E0008004410F5748C840196889093C220A40B3
:1027F000274989581F220A40D0402F49086026489F
:102800000068FFF7F7FD0146084603B0F0BD596DBB
:102810000AE0194608390968890306E019460839AB
:102820000968890101E0996D8907019900D459E788
:102830001968A14301431960144FFFF709FC0646CC
:102840003E4800683821014002984068C00081423B
:1028500000D15EE7FFF7FCFB801BB842F0D90321F3
:10286000084603B0F0BD18680840202802D10120B6
:10287000C003B9E718680840182801D00020B3E762
:102880007D200002B0E7C04600200240881300000F
:102890009C5300080800002004000020064800683F
:1028A00026490968890A1C220A40044989581F22BE
:1028B0000A40D0407047C04608000020DC530008A2
:1028C00010B51E4C20688006400F06D022683821C3
:1028D0000A401B48082A07D110BD083C2068800424
:1028E000410F1848C84010BD22680A40102A15D16F
:1028F000616803220A40032A00D012486168490631
:10290000490F491C02F080FA61684904490E4843A6
:102910006168490F491C02F077FA10BD2068084031
:10292000202802D10120C00310BD206808401828CB
:1029300001D0002010BD7D20000210BD0810024013
:1029400000127A000024F400F0B587B001250028B9
:1029500000D1ECE1049505900078C007F94F2AD02A
:10296000B868F96803252A468A43382101401020B7
:102970004840821850425041082914D0002812D1F2
:1029800005984268012001048A4208D005231B04EF
:102990009A4200D0DAE082043B6813433B603A6815
:1029A0000A433A60DBE03868800304D50598406844
:1029B000002800D173E105980078800723D405989A
:1029C000007800070CD5B86838210140182971D16A
:1029D000386E800704D505988069002800D15EE133
:1029E000059A1078400700D42EE1B86838210140DC
:1029F000202974D1F86D800700D425E19068002863
:102A000000D021E14BE1B968382008401021414055
:102A1000FA6803252A4002235340CA185142514103
:102A2000002820D000291ED13868059AD1680029D5
:102A300000D1A2E00721C90288431169014339602E
:102A4000012001023A680A433A608402FFF700FB62
:102A500006463868204200D0A1E0FFF7F9FA801B53
:102A60000228F6D963E139684905059B03D5D96881
:102A7000002900D113E17F2109027A688A4359694C
:102A800009021143796000280DD10720C00239687E
:102A9000814318690843386038688004400FAA49A8
:102AA000C140AA480160AA480068FFF7A3FC0028BB
:102AB00085D0F4E0386E05998969002979D0012123
:102AC00008433866FFF7C4FA0646386E800787D495
:102AD000FFF7BEFA801B03250228F6D927E1012063
:102AE00003900107F86B0840029006D1F86B084389
:102AF000F863F86B084006900698019195480068C5
:102B0000C00513D403980402924908682043086062
:102B1000FFF79EFA06468F480068204206D1FFF76D
:102B200097FA801B03250228F5D900E105988068F3
:102B3000894C012805D005285AD1F86D042101439C
:102B4000F965F86D03990843F8655BE03B688B43D2
:102B50003B6081043B688B433B60002A3AD04404CD
:102B6000FFF776FA06463868204200D023E7FFF7E1
:102B70006FFA801B6428F6D9D9E001210A0290433C
:102B800038608C02FFF764FA06463868204200D1AC
:102B900015E7FFF75DFA801B0228F6D9C7E07F2012
:102BA0000002796881430598406900020843786013
:102BB00005E7012188433866FFF74AFA0646386E72
:102BC000800700D40CE7FFF743FA801B0325022897
:102BD000F5D9ACE04404FFF73BFA064638682042DA
:102BE00000D1E8E6FFF734FA801B6428F6D99EE0AE
:102BF000F96D039A9143F965F96D04229143F965E2
:102C000000280CD0FFF724FA0646F86D800713D48D
:102C1000FFF71EFA801B0325A042F6D987E0FFF7D5
:102C200017FA0646F86D800706D5FFF711FA801BE4
:102C30000325A042F6D97AE002980028059A03D12C
:102C4000F86B01998843F863D469002C76D0B86892
:102C500038210140102926D1012C20D0F868032109
:102C60000140059B1A6A914219D1702101405A6AAC
:102C7000914214D17F21090201409A6A12029142C5
:102C80000DD11F2149040140DA6A9142049D4ED1C1
:102C9000072149070840196B884248D14EE0049D3E
:102CA000284607B0F0BD01252906386804918843FD
:102CB0003860FFF7CDF90646022C0BD103956C0660
:102CC0003868204211D0FFF7C3F9801B0325022882
:102CD000F6D92CE06C06386820422BD0FFF7B8F903
:102CE000801B03250228F6D921E0F8681C49014021
:102CF000059E20366DCE0843104319020143294337
:102D00003143F96038680499084338600398000734
:102D1000F9680143F960FFF79BF9064638682042DD
:102D20000CD1FFF795F9801B03250228F6D9284618
:102D300007B0F0BDF86809490140F9600025284650
:102D400007B0F0BD001002400024F400080000208D
:102D5000040000200070004088130000FCFFFEEF1C
:102D60008C80C11F401E010E01D001207047074911
:102D7000074A5060074803680B4003218907591828
:102D8000016000209060072111607047FFFFFF0085
:102D900010E000E020ED00E0B0B58421415C0129A5
:102DA00001D10220B0BD0246843224215160016865
:102DB0000B680C680125AC430C606C07A3430B60E7
:102DC000002141661170202050600846B0BD704758
:102DD000F0B581B08422825C012A02D1022001B0C8
:102DE000F0BD0546683524222A62066837683268D5
:102DF0000124A243326007225206B36893430B4377
:102E0000B360406E0028204615D00097B768B068C0
:102E1000400F2B49095C2B4A105CC00001F0F4FF05
:102E200004463801009F400F2549095C254A105C83
:102E3000C00001F0E9FF28806C803760002028770F
:102E40002021296201B0F0BDF0B581B08422825CFE
:102E5000012A02D1022001B0F0BD054668352422C6
:102E60002A620668376832680124A243326007226A
:102E70005207B36893430B43B360406E002820466B
:102E800015D00097B768B068400F0D49095C0D4A2E
:102E9000105CC00001F0B8FF04463801009F400FED
:102EA0000749095C074A105CC00001F0ADFF2880AB
:102EB0006C803760002028772021296201B0F0BDA6
:102EC000465C00083E5C00087047B0B5002830D072
:102ED0000446054684356868002804D1002028701F
:102EE000204600F029F82420686020680168012548
:102EF000A9430160A06A002802D0204600F01BFF11
:102F0000204601F0D9FA012811D00920C002216819
:102F10004A6882434A6088682A2290438860086829
:102F2000012202430A60204600F06EFF0546284653
:102F3000B0BD0120B0BD0000B0B58CB00024069437
:102F400005940494039400686949884201D00CB048
:102F5000B0BD02940125019501A8FFF7E3FA00280E
:102F600001D0FEF727FC0F48C1680B95AA03114357
:102F7000C160C16811400091009901682943016056
:102F80000068284000900A940994022008900320C9
:102F90004002079005200007009907A9FEF76AFF85
:102FA0000CB0B0BD34100240F0B581B08C23C358D2
:102FB000202B12D1012400290CD0002A0AD0012391
:102FC0001C038568A5420CD1CC070AD00469002CEB
:102FD00007D11C46204601B0F0BD0224204601B0B6
:102FE000F0BD0024C46605686D682D020AD5EFF3B4
:102FF000108583F310889B06066837681F43376087
:1030000085F3108801F00EFB204601B0F0BD0000F2
:1030100070B500683649884200D070BD354CA18833
:10302000E078012908D000290FD1FA2853D1FA20DD
:1030300020760120A08055E0FA284FD0AF284AD151
:10304000AF2060760220A0804CE062181076481C09
:10305000A08080B20F2845D30020A080207EFA28CF
:1030600040D1607EAF283DD1A07E53283AD1204682
:103070001830417BFB2935D1817BBF2932D1E17EDC
:10308000227F12025118627FA37F1B029A1812043A
:103090005118E27F80680B0E5340C5B25D40030EAD
:1030A0006B400D0A4D400E0C6E40F5B25D40030AB8
:1030B000DBB26B40050CEDB25D4006236B4024256E
:1030C000655DAB420ED1A270E06021610A4902F059
:1030D00029F8A06006E00020A08003E00120A08085
:1030E000FA202076E11C05480122FFF75DFF70BD44
:1030F00000380140700000200000404150050020D1
:10310000F0B587B0074688203858202811D1012013
:1031100000290CD01446002A09D001200503BA6802
:10312000AA4209D1CA0707D03A69002A04D107B0D8
:10313000F0BD022007B0F0BD069302950D46019048
:103140003E46543600200390F063212004907063C3
:10315000FEF77EFF3246059074803480B86802998D
:1031600088420AD138690028294600D000210391FD
:103170000028069B02D1054600E0069B386851886E
:103180000029164639D0C16909061CD4591C0ED035
:10319000002B59D0FEF75CFF069B0599401A984218
:1031A00054D838680168C1690906F3D50BE0C169D4
:1031B000090608D4C169090605D4C169090602D403
:1031C000C1690906F3D5002D03D0297881626D1CF1
:1031D00007E0039A1188234C21408162921C0392DC
:1031E00000253246716B049C2140212934D151883D
:1031F000491E518051880029C5D1C1690024490662
:1032000010D4002B20D0591C16D13246C169490672
:1032100008D4C169490605D4C169490602D4C16907
:103220004906F3D520462021516307B0F0BD386828
:103230000168C069400612D4FEF70AFF0599401ADA
:1032400006998842F3D901E0FEF702FF03203246D7
:103250002021516307B0F0BD019807B0F0BD2046B2
:10326000F5E7C046FF010000FEE70000F0B585B0BD
:103270000E4604464030049020688169C90606D491
:1032800000210F4601258269D30545D448E010216D
:10329000C1618169890637D4711C32D0154601207D
:1032A000002E6CD186030390C7030297FEF7D0FE71
:1032B000206842680499897883693B4209D032408A
:1032C00007D1202905D0416831434160FEF7C0FE97
:1032D000054620688169890605D4FEF7B9FE401BC2
:1032E0001A28F6D377E081698906029FDED50BE0C4
:1032F0008169890608D48169890605D481698906AE
:1033000002D481698906F3D52021C16101270421F6
:1033100001258269D30503D52B02C36129432F46BA
:103320006B02560506D41A420AD1002F0BD1002099
:1033300005B0F0BDAD02C561082529431A4202D08F
:10334000C361022211438269920701D50022826281
:103350008269D20703D182690123134383614268E2
:10336000214B13404360606C084360642020049943
:103370004870002008708870012005B0F0BD8103FE
:1033800002910390C0030190019F03E020688169CE
:103390008906B9D4FEF75CFE401BB042F6D920681E
:1033A00042680499897883693B420BD0029B1A409A
:1033B00008D1202906D04168029A11434160FEF7E6
:1033C00047FE0546206880698006DFD4FEF740FE90
:1033D000401B1A28F6D3206881692421039F012508
:1033E0008269D30598D49BE700E800FEF0B585B06C
:1033F0000D460446006880690840401A4142414138
:1034000000260492914223D11F460A9A581C039227
:103410002BD0002F029433D1002620463146FFF7EF
:1034200025FF002828D1FEF713FE20688169294076
:10343000491B4A424A4104998A42039A44D080690E
:103440002840401B4142414104988142029CE3D004
:10345000304605B0F0BD206880692840401B4142DD
:10346000414104988142039AF2D10026F14320465B
:10347000FFF7FCFE0028EED00126304605B0F0BD77
:10348000019507E080692840401B41424141049872
:103490008142DDD13446029E304639461546FFF75B
:1034A000E5FE0028E8D1FEF7D3FD411B3068B942A4
:1034B0002A462646019DE5D981692940491B4B4290
:1034C0004B4104998B42DDD1029B18464030596C28
:1034D000202211435964427000210170817001263D
:1034E000304605B0F0BDF0B581B005460068806992
:1034F0000024800622D416460F46002903D129E075
:10350000806980061AD4284639463246FFF7AEFE57
:10351000002827D1FEF79CFD811B2868B942EFD90E
:1035200081698906ECD428464030696C2022114319
:10353000696442700021017081700124204601B04D
:10354000F0BDFEF785FD286881698906EBD58069A5
:103550008006F3D40024284621463246FFF786FE33
:103560000028EED00124204601B0F0BDF0B581B0B6
:103570000546006880690024800716D416460F4669
:10358000481C19D0002F26D1002428462146324657
:10359000FFF76CFE002838D1FEF75AFD28688169D4
:1035A000890728D580698007EED5204601B0F0BD97
:1035B000286880698007F8D40024E1432846324611
:1035C000FFF754FE0028F3D00124204601B0F0BDDF
:1035D00080698007E9D4284639463246FFF746FE1F
:1035E000002812D1FEF734FD811B2868B942EFD9BB
:1035F00081698907ECD428464030696C2022114348
:10360000696442700021017081700124204601B07C
:10361000F0BD0000F0B583B03C212A480025455498
:103620002C214554C56405210563416381634562CE
:1036300085620424C4610126867605832021224AFE
:103640007305B70784C00560083802460C321AC2F9
:10365000029501950095FEF715FA002801D0FEF7B6
:10366000A9F802950195009616486946FEF7A6F856
:10367000002801D0FEF79EF80194144800901148EC
:103680006946FEF79BF8002801D0FEF793F8082062
:1036900001900F4800900B486946FEF78FF800280C
:1036A00001D0FEF787F80C2001900A4800900548E9
:1036B0006946FEF783F8002801D0FEF77BF803B0D7
:1036C000F0BDC04698040020002401400200000420
:1036D0000800000C10000010F0B587B0002406941C
:1036E00005941948016820221143016001681140C6
:1036F0000191019901680125294301600168294070
:103700000191019901680222114301600068104093
:10371000019001980D48072631462246FEF78FFC9E
:1037200004950394242002900520000702AF394637
:10373000FEF7A0FB059404940395029603483946CE
:10374000FEF798FB07B0F0BD3410024000040050B3
:1037500010B5AD4800210122104B114C04604360AC
:103760008160C260016141618161C1610162FEF7F6
:10377000B7FC002801D0FEF71DF8A3480021FEF792
:103780006BFC002801D0FEF715F89F480021FEF7DA
:1037900085FC002801D0FEF70DF810BDBC7D70102F
:1037A0000058004010B5174800210C22164B01624A
:1037B00041628162E124640218C00160416081605D
:1037C000C260016141610838FFF77FFB002801D02A
:1037D000FDF7F0FF0B480021FFF736FB002801D072
:1037E000FDF7E8FF07480021FFF7F2FA002801D0B3
:1037F000FDF7E0FF0348FFF7CFFA002801D0FDF7FF
:10380000D9FF10BD5005002000380140FEE7000040
:1038100080B501208102F348FCF787FE80BDC046D9
:10382000F0B583B002AAAE205070002717700A25A9
:10383000009575487826022431462346FEF7AAFCF7
:1038400002AAD5205070177000956F483146234664
:10385000FEF7A0FC02AA80205070177000956A48FD
:1038600031462346FEF796FC02AAA8205070177036
:103870000095654831462346FEF78CFC02AA3F209E
:10388000507017700095604831462346FEF782FC61
:1038900002AAD3205070177000955B48314623462A
:1038A000FEF778FC02AA577017700095564831460B
:1038B0002346FEF76FFC02AA402050701770009557
:1038C000514831462346FEF765FC02AAA1205070FC
:1038D000177000954C4831462346FEF75BFC02AA60
:1038E000C820507017700095474831462346FEF7B0
:1038F00051FC02AADA2050701770009542483146F8
:103900002346FEF747FC02AA12205070177000955C
:103910003D4831462346FEF73DFC02AA8120507007
:1039200017700095384831462346FEF733FC02AA4B
:10393000CF20507017700095FA4831462346FEF7A5
:1039400029FC02AAD920507017700095F54831461D
:103950002346FEF71FFC02AAF12050701770009555
:10396000F04831462346FEF715FC02AADB205070D2
:1039700017700095EB4831462346FEF70BFC02AA70
:103980003020507017700095E64831462346FEF708
:1039900001FC02AAA420507017700095E14831463E
:1039A0002346FEF7F7FB02AAA62050701770009579
:1039B000DC4831462346FEF7EDFB02AA8D2050700D
:1039C00017700095D74831462346FEF7E3FB02AA5D
:1039D0001420507017700095D24831462346FEF7E8
:1039E000D9FB02AAAF20507017700095CD48314620
:1039F0002346FEF7CFFB01208102C948FCF795FD65
:103A000000F048F903B0F0BDFC040020F0B58AB026
:103A100044B2002C01D43F2901D90AB0F0BD5C1892
:103A2000402C079101D8194601E04024611ACCB21C
:103A30001118802904920690089302D97F21C94366
:103A40000A1A002C47D0079FE319100632D0D0B2D3
:103A5000069945183846099304E07F1CF8B2099B83
:103A6000834238D90721394001228A40D443C30810
:103A7000069A1146D801AA4E3018465C2640465494
:103A8000511CC9B28D42E8D9465C26404654911C6F
:103A9000C9B28D42E1D9465C26404654D11CC9B218
:103AA0008D42DAD9465C26404654121DD1B28D4271
:103AB000E0D8D2E73846411CC9B28B420BD9811CF1
:103AC000C9B28B4207D9C11CC9B28B4203D9001DB0
:103AD000C1B28B42EFD80898401E81B2490B401802
:103AE000C0100590049D002D5FD00721079B1C4648
:103AF0000C4008208A4A069FD619CA01802F00D39D
:103B000080270F990391001B0890D8080290B018E5
:103B10000090803F0020024606973146019609E05A
:103B2000079A521CD0B205998142049D069F0199C3
:103B300000D272E70792029BC018079AD2B29B1874
:103B40006A43039EB618DA018B18072800D964E788
:103B500010D12846009A3B46002BE1D03178A14095
:103B600015780D431570401E761C521C5B1C0028F6
:103B7000F2D1D5E72A4638460028D1D03178A14085
:103B80001F780F431F7080215D5C099535782746AB
:103B9000089CE5403C46099F3D435D54521E761CFF
:103BA0005B1C401C002AE7D1BAE700200121014339
:103BB000C9B2059A8A4200D22FE702210143C9B255
:103BC000059A8A4200D228E703210143C9B2059A27
:103BD0008A4200D221E7001DC1B2059A8A42E5D28D
:103BE0001BE7C04698000020F0B581B0064610786B
:103BF00000282ED014460D46082B16D0062B2AD1AD
:103C000000270622504320494018C0380090104633
:103C100078438019C0B208232946FFF7F7FE7F1CBE
:103C2000F8B2205C0028ECD113E00027000117490E
:103C30004018174940180090F8008019C0B20822B7
:103C400010232946FFF7E2FE7F1CF8B2205C002813
:103C5000ECD101B0F0BD002001210143C9B2615C8B
:103C60000029F6D002210143C9B2615C0029F0D0DD
:103C700003210143C9B2615C0029EAD0001DC1B231
:103C8000615C0029E8D1E4E7FC53000836560008DF
:103C900000FEFFFFF0B5A9B008A8401C0390002665
:103CA0001F4F0296069708AA029F1770B020304354
:103CB00050700A2400947825022307931948294656
:103CC000FEF768FA08AA1020507017700494009448
:103CD000144805952946079BFEF75CFA08AA577019
:103CE0001770069F00940F482946079BFEF752FA6B
:103CF0006D4608AC40202070802203983946FCF7BE
:103D0000B5FB049800908123064805992246FEF7EA
:103D100041FA8037761CAD46082EC3D129B0F0BDDC
:103D200098000020FC0400207047704780B5FEF723
:103D300041FB80BD7047B0B5816A0A070CD4CA0741
:103D400014D18A071CD44A0724D4CA062CD48A0664
:103D500034D44A063CD44CE00122D20303685C68A8
:103D60009443826B22435A60CA07EAD0012252046C
:103D700003685C689443C26A22435A608A07E2D5AA
:103D80000122120403685C689443026B22435A6068
:103D90004A07DAD50122920403685C689443426BB7
:103DA00022435A60CA06D2D50122120303689C68D6
:103DB0009443C26B22439A608A06CAD501225203F9
:103DC00003689C689443026C22439A604A0610D5AB
:103DD00001221305026854689C43456C2C435460CF
:103DE0009D4206D103235B0554689C43836C2343A7
:103DF0005360090607D50121C904026853688B4343
:103E0000C06C18435060B0BDF0B583B0044690203C
:103E10000026265027468437FEF71AF90346206805
:103E2000016809071FD5294800900120029041052B
:103E3000002220461D4600F08FFC002811D0EFF331
:103E40001080029981F3108821680A6880239A43C0
:103E50000A6080F310882020786003203E7003B051
:103E6000F0BD20682B460068400725D51748009014
:103E70000125A9050022204600F06EFC00281BD079
:103E8000EFF3108085F31088092149012268136837
:103E90008B43136080F31088EFF3108085F3108854
:103EA00021688A68AA438A6080F310882020B8605D
:103EB00003203E7003B0F0BD20207860B860E66655
:103EC000266730463E7003B0F0BDC046FFFFFF01DD
:103ED000F0B581B06021425A8C21415803682229F3
:103EE0000FD101465C315B6A1A40836D1A804A88A3
:103EF000521E4A809A1C82654A88002A07D001B067
:103F0000F0BD986908210143996101B0F0BDEFF35C
:103F10001083012282F310880924640105682E6849
:103F2000A6432E6083F31088EFF3108382F310888A
:103F30000468A5689543A56083F3108820230B636C
:103F40000023036743670468646824020AD5EFF31B
:103F5000108482F31088950606683768AF4337608F
:103F600084F31088C46E012C15D1C366EFF310835F
:103F700082F310880468256810229543256083F336
:103F800010880368DC69E40600D51A620988FEF728
:103F90001EFF01B0F0BDFFF73BF801B0F0BD00001F
:103FA000F0B581B004466020275A2268D5691168AF
:103FB00090688C23E358222B5ED126465C36012282
:103FC0000092B289002A00D101E1009A1040C9058F
:103FD00057D4002821D103E07088002800D1B1E037
:103FE000A80600D4F3E02068416A3940A26D118030
:103FF0007188491E7180911CA165C5696807EBD065
:10400000706B0028E8D02046FEF75EFF002070634A
:10401000E2E77088002800D194E0A80600D4D6E03A
:104020002068416A3940A26D11807188491E7180F3
:10403000911CA165C5696907EBD0AA0705D40029C1
:104040000BD4706B002811D1E3E702220262726B7D
:104050000423134373630029F3D504210162706BB9
:10406000022101437163706B0028D2D02046FEF715
:104070002BFF00207063CCE7906908210143916118
:10408000CDE0002826D102E0708800285AD0A8068A
:1040900000D49CE02068416A3940A26D118071888B
:1040A000491E7180911CA165C5696907ECD0E907BB
:1040B00004D000990162706B08437063706B002834
:1040C000E2D02046FEF700FF00207063DCE7708836
:1040D000002837D0A80600D479E02068416A39402A
:1040E000A26D11807188491E7180911CA165C569FE
:1040F0006907ECD0EA0707D1AA070CD4002912D42B
:10410000706B002818D1E2E7009B0362726B1A43C0
:104110007263AA07F2D502220262726B0423134370
:1041200073630029ECD504210162706B0221014305
:104130007163706B0028CAD02046FEF7C5FE0020D0
:104140007063C4E7EFF31080009D85F310882902A7
:10415000226813688B43136080F31088EFF310809C
:1041600085F3108821688A68D24B13408B6080F3F6
:10417000108820203063002020676067216849682C
:1041800009020BD5EFF31081009A82F31088920692
:1041900023681D6895431D6081F31088E16E012935
:1041A00037D1E066EFF31081009880F31088226821
:1041B000136810208343136081F310882168CA6953
:1041C000D20600D5086231882046FEF700FE7088CE
:1041D000002824D0B189884221D2EFF31080009DBD
:1041E00085F31088B349491C226893680B4093609B
:1041F00080F310880B486067EFF3108085F3108818
:1042000021680A68202313430B6080F3108801B0F3
:10421000F0BD2046FEF7FCFE70880028DAD101B020
:10422000F0BDC046D13E0008F0B581B06021435AD0
:104230008C2141580268222910D101465C31526A12
:104240001A40836D1A704A88521E4A80826D521C31
:1042500082654A88002A07D001B0F0BD9069082124
:104260000143916101B0F0BDEFF31083012282F3AD
:1042700010880924640105682E68A6432E6083F324
:104280001088EFF3108382F310880468A5689543C3
:10429000A56083F3108820230B6300230367436723
:1042A0000468646824020AD5EFF3108482F310884E
:1042B000950606683768AF43376084F31088C46E8C
:1042C000012C15D1C366EFF3108382F310880468C4
:1042D000256810229543256083F310880368DC6904
:1042E000E40600D51A620988FEF771FD01B0F0BD41
:1042F000FEF78EFE01B0F0BDF0B583B0044660203D
:10430000205A01902068C7690168009186688C2155
:10431000615822295CD125465C35A889002800D146
:104320009EE00120064002900002009901400091A9
:1043300002E06888002850D0B80600D490E02068D9
:10434000406A01990840A16D08706888401E688025
:10435000A06D401CA0652068C7697907E9D0009B63
:104360005A425A41FB07029B00D01346002B04D14E
:10437000012202626B6B13436B6372427241BB0793
:10438000029B00D51346002B05D1022202626A6B04
:10439000042313436B63724272410029029905D4CE
:1043A000002906D0686B00280CD1C2E7114600290D
:1043B000F8D104210162686B022101436963686BD3
:1043C0000028B6D02046FEF77FFD00206863B0E7E6
:1043D000816908220A4382616AE0EFF310810120BB
:1043E00080F31088020223681E6896431E6081F3E2
:1043F0001088EFF3108180F31088226893682D4EA7
:104400001E40966081F310882021296300212167D6
:1044100061672268526812020AD5EFF3108280F3B6
:1044200010888306266837689F43376082F31088B8
:10443000E26E012A36D1E166EFF3108180F3108835
:104440002268136810208343136081F31088216869
:10445000CA69D20600D5086229882046FEF7B7FC53
:104460006888002824D0A989884221D2EFF31080DF
:10447000012181F310880F4A521C23689D68154062
:104480009D6080F31088B2486067EFF3108081F37D
:10449000108821680A68202313430B6080F310887A
:1044A00003B0F0BD2046FEF7B3FD68880028DAD1DE
:1044B00003B0F0BDFEFFFFEFF0B581B00446006829
:1044C00001684B4B0B40A16822690A4361691143A3
:1044D000E2691143194301600321090343688B43D7
:1044E000E16819434160A169236A0B438168414D2A
:1044F0000D401D438560C36A0F218B43616A0B43E6
:10450000C3623D4B984209D03C4B984208D13C488D
:1045100000688007000F3BA31F5802E0002700E05F
:104520001027264668360125EB033A489A4210D1F7
:10453000082F55D87F443F797F00BF440451235151
:104540001C5151512200FEF7A9F9002817D0616AC9
:1045500018E0082F44D8C0467F443F797F00BF440D
:10456000043F2D3F263F3F3F2C00FEF797F90028E0
:1045700021D0616A22E0FEF7A3F90028E7D10025E7
:104580002EE018464900244A515A00F03DFC4000F4
:1045900061684A08101800F037FC0246103A1F49BB
:1045A0008A421DD201400007400F084315E0FEF784
:1045B00087F90028DDD1002512E018464900164A87
:1045C000515A00F021FC61684A08101800F01CFCE8
:1045D00001461039114A914202D22168C860002573
:1045E0000F48306000206067A067284601B0F0BD2A
:1045F000F369FFCFFFF4FF11004400400038014091
:1046000054100240000000000400000002000000FE
:10461000080000000024F400265C0008F0FF000001
:104620000100010070B55C23C25281650021416721
:1046300003465C335A808468002C0BD001252E077A
:10464000B4420CD02D03AC420ED10469002C04D12D
:104650003C4C0CE00469002C08D1FF2407E00469FD
:10466000002C03D03F2402E0998001E07F249C804D
:10467000596322211963EFF31084012181F310881B
:104680000568AE680E43AE6084F310884C07456E33
:10469000A54202D19B8993421CD902690B0384680D
:1046A0009C4204D1002A1FD0294A426703E0284BCC
:1046B0004367002A1AD0EFF3108281F310880902B1
:1046C000006803680B4320211943016082F31088BE
:1046D000002070BD02690B0384689C4213D1002A3C
:1046E00021D0194A426712E01A4A4267EFF310825A
:1046F00081F310880068016820230B43036082F374
:104700001088002070BD104B4367002A0DD0EFF3D6
:10471000108281F310880B02046825681D43256010
:1047200082F3108801E0094A4267EFF3108281F3B7
:1047300010880907006883680B43836082F3108840
:10474000002070BDFF010000F9420008A13F0008F1
:1047500029420008D13E0008F0B585B01F46154635
:104760000E460368D9693140891B4A424A410021FB
:10477000AA4222D10A9C002C22D00391611C24D190
:10478000D9693140891B4A424A41AA4231D1D9698B
:104790003140891B4A424A41AA422AD1D969314053
:1047A000891B4A424A41AA4223D1D9693140891B17
:1047B0004A424A41AA42E3D01BE0084605B0F0BD98
:1047C000FDF746FC032005B0F0BD402E049001D05B
:1047D000802E14D1FDF73CFCC01BA0420CD80498DD
:1047E00000680168C0693040801B41424141A942D4
:1047F000F0D0039805B0F0BD032005B0F0BD8430C3
:10480000019001200090C002029006E0C86930408B
:10481000801B41424141A942EBD1FDF719FCC11B6C
:104820000320A1423FD8049909680A685207EDD5D0
:10483000CA69120739D4CA69029B1A42E6D0029AA1
:104840000A62EFF31082012181F3108809235B01D2
:10485000049C246825689D43256082F31088EFF34B
:10486000108281F31088049B1B689C682A4D2540A8
:104870009D60049B82F31088DA6E012A0BD1EFF35E
:10488000108281F3108819680B681024A3430B6011
:10489000049B82F310882021019CA1600022DA662B
:1048A0005A672270E16005B0F0BD08250D62EFF394
:1048B0001081009880F3108809225201049B1B6824
:1048C0001C6894431C6081F31088EFF3108180F31F
:1048D0001088049A126893680F4C1C40049B9460E3
:1048E00081F31088D96E01290CD1EFF310810122D8
:1048F00082F310881A6813681024A3431360049B82
:1049000081F310882021019A91600021D9665967AE
:104910001170D56005B0F0BDFEFFFFEFA4B0FDF74C
:1049200053FD00271C971B971A97199718971797ED
:1049300001256802FDF7B6FD680722906804219002
:10494000082020901F9702241E941D9440201B9045
:104950001A9728021990169416AD16A8FDF7F4FFC1
:10496000002803D0EFF3108072B6FEE71597149776
:1049700007201290139412A82146FDF791FE0028FB
:1049800003D0EFF3108072B6FEE7E81C0290FEF74A
:10499000A3FEFEF73FFEFEF7DBFEFEF703FFFEF78A
:1049A0003FFFFEF735FFF148C11CF14801220B9291
:1049B000FEF7FAFA1F20C0020A90052006070D979D
:1049C000099645E00020109002250C230C932946FF
:1049D000E2A2FFF709F90F98FBF702FF02460B4628
:1049E00016AC2046E049FBF709FC3C200F90294615
:1049F00022460C9D2B46FFF7F7F8042108911098EA
:104A0000F9A22B46FFF7F0F80E98FBF7E9FE0246F5
:104A10000B462046F349FBF7F1FB0F980899224615
:104A20002B46FFF7E1F806211098F2A22B46FFF77C
:104A3000DBF81198FBF7D4FE02460B462046F0A1A6
:104A4000FBF7DCFB0798062116AA0C23FFF7CCF82E
:104A50000C9706E0FDF7FCFA0C9FC01BC82800D39A
:104A6000F5E00027189717970B98169016A9C14CD8
:104A70002046FCF7A3FE2046FDF7CEF90A26204685
:104A80003146FDF74BF92046FCF7F8FF11901897D7
:104A90001797B948169016A92046FCF78FFE2046B6
:104AA000FDF7BAF920463146FDF738F92046FCF704
:104AB000E5FF054618971797B048169016A92046A7
:104AC000FCF77CFE2046FDF7A7F920463146FDF7AE
:104AD00025F92046FCF7D2FF0A99401810906D186E
:104AE0001198401800B2FBF779FF1D214E063146A0
:104AF00000F018FBA2490C4600F014FB0F9028B2FE
:104B0000FBF76CFF314600F00DFB2146254600F017
:104B100009FB0E90109800B2FBF760FF3146099E2A
:104B2000924C00F0FFFA294600F0FCFA0546FDF72A
:104B30008FFA6169401A142825D3FDF789FA60615C
:104B400004213046FDF776FA00280AD104213046C8
:104B5000FDF770FA0028F9D06078002800D1FF43F3
:104B6000677020213046FDF765FA00280BD120211F
:104B70003046FDF75FFA0028F9D0207841424141E4
:104B80002170FEF745FEFDF763FA0D99401A64287F
:104B900000D25FE7FDF75CFA0D9060780390280E75
:104BA00010900299C873280C08908873280A0790FF
:104BB00048730D730E9A100E0590C8721195100C63
:104BC00004908872150A4D720A720020C8718871AB
:104BD000487108710F98040ECC70030C8B70060A94
:104BE0004E70087016A9BF2706978F75FB274F7563
:104BF00049278F70634F0F80039FCF7446405E40FC
:104C0000664056406E4004984640059846401198CC
:104C100046400798464008984640109846407E40D7
:104C20001C207040514C087517220A25504E304602
:104C30002B46FEF765FA069817905348169016A96A
:104C4000052230462B46119DFEF75AFA02E7FDF782
:104C5000FFF90746FDF7FCF9119505467D20C100D7
:104C6000284600F0D1F810902846484900F0CCF8CA
:104C700005463C211098FBF7B3FC0B4616A8109094
:104C800043A12A46FBF7BAFA00250C200C902846CF
:104C90002946109A0C9BFEF7A7FFA068FBF7A0FD22
:104CA00002460B4610983EA1FBF7A8FA4620079053
:104CB00008952946109A0C9BFEF796FF3F200106A7
:104CC0000F98109100F02EFA0C9011983749FBF7CD
:104CD000B1FD05462078002800D173E60C9C2046E3
:104CE000294600F077FAFBF77BFD11900E4620462F
:104CF000294600F0D1F9FBF773FD02460B461198E7
:104D00000090019616AC204629A1FBF777FA022104
:104D10000C26089D284622463346FEF765FF0E986E
:104D2000109900F0FFF9FBF75BFD02460B4600907F
:104D30000191204623A1FBF761FA0421284622466F
:104D400033460A4DFEF750FF6A78002A00D02D2224
:104D5000204621A1FBF752FA089874E659205468BE
:104D6000727573743A0000004E5C000870000020F9
:104D70005005002098040020020000040800000CE8
:104D800000002041FAAF0000FAAF52FB60EA0000D9
:104D900054696D653A253032643A2530326400003A
:104DA000506F7765723A252E31665700CDCC4C3E58
:104DB0004D313A252E31664E204D323A252E316640
:104DC0004E0000004D333A252E31664E204D343AC8
:104DD000252E31664E000000536572766F3A2564C9
:104DE000646567004E5C00085A20546872757374DD
:104DF0003A00000059617720546F727175653A006E
:104E0000252E31664E6D000043088B421AD30022D6
:104E100003098B4279D3030A8B425ED3030B8B4287
:104E200042D3030C8B4227D30902FF2212BA030C90
:104E30008B4202D31212090203D0030B8B4233D3ED
:104E40001AE0D3E0411A8041401C704703460B43EF
:104E500071D443088B42F5D3002203098B4254D30B
:104E6000030A8B4239D3030B8B421DD3030C8B42B5
:104E700002D394466EE0090AC30B8B4201D3CB03E5
:104E8000C01A5241830B8B4201D38B03C01A52418B
:104E9000430B8B4201D34B03C01A5241030B8B428D
:104EA00001D30B03C01A5241C30A8B4201D3CB0278
:104EB000C01A5241830A8B4201D38B02C01A52415D
:104EC000430A8B4201D34B02C01A5241030A8B4260
:104ED00001D30B02C01A5241CDD2C3098B4201D378
:104EE000CB01C01A524183098B4201D38B01C01AF6
:104EF000524143098B4201D34B01C01A524103096D
:104F00008B4201D30B01C01A5241C3088B4201D31B
:104F1000CB00C01A524183088B4201D38B00C01AC8
:104F2000524143088B4201D34B00C01A5241411AEF
:104F3000524110007047CA0F00D04942031000D3FD
:104F40004042534000229C4603098B422DD3030A62
:104F50008B4212D38901FC2212BA030A8B420CD372
:104F6000890192118B4208D3890192118B4204D39B
:104F7000890137D0921100E08909C3098B4201D31E
:104F8000CB01C01A524183098B4201D38B01C01A55
:104F9000524143098B4201D34B01C01A52410309CC
:104FA0008B4201D30B01C01A5241C3088B4201D37B
:104FB000CB00C01A524183088B4201D38B00C01A28
:104FC0005241D9D243088B4201D34B00C01A5241FF
:104FD000411A00D201465241104663465B1000D38D
:104FE0004042704763465B1000D3404201B5002148
:104FF000004201D0C9430846C046C04602BDF8B5CC
:10500000040C8BB2264682B25E43104658430D0C08
:10501000370C360400218019164679416E43370C4F
:1050200036048019264679416E438919F8BD00007F
:105030004900CA020243100000D004204A0D01D0EA
:1050400001221043044A490D914201D10221084333
:10505000012800D105207047FF07000030380A28DA
:1050600001D20120704700207047000010B50029D0
:105070000AD00878002807D005487844FBF758FA8A
:10508000002801D0002010BD0248784410BD000067
:10509000FA0B0000F20B000070B50125ED070400CB
:1050A0004C4020D4441A01D2001B0919C60D4B00F4
:1050B000F2B2FF2A29D01B0E2CD000020C0228438A
:1050C0002C43D31ADC40051910D2280A02D3401C05
:1050D0006D0611D0761EF6058019FF2A00DA70BD24
:1050E000C00DC00570BD694000F07AF8012005438D
:1050F000C541521C761CE8E764089C40C901614028
:105100008900E7D10124A043E4E71B0E440200D04C
:10511000034870BD002AFCD1C00FC00770BD00BF9E
:105120000000C07F70B5420064414B005C41120E2C
:1051300039D01B0E38D0FF2A3CD0FF2B3AD0D218E2
:105140007F3A40024902400A490A4518ED0106002B
:105150004E43000A090A48430104731A4019190C06
:105160004318990F04D05B08012149075B1A521CB0
:10517000D80904D3401CF50301D19D0607D0FF2AAE
:1051800008D2D50506D0E4072043401970BD01259B
:10519000A843F4E7002A01DCE00770BD2402FF20E9
:1051A0002043C00570BD1B0EFF2A03D0FF2B01D08A
:1051B000E00770BDFF2636064500B54206D84D0013
:1051C000B54203D8D218FF2A00D0E7E7004870BDE7
:1051D0000000C07F70B50125ED0704004C4022D4CB
:1051E000441A02D26C40001B0919C60D4B00F2B2E2
:1051F000FF2A4BD01B0E50D000020C02A8432C43B8
:10520000D31ADC40051B05D5AD0019D36D08761EF9
:10521000521E37D0F605280A01D2801970BD7041A0
:105220006D0603D070BD6940FFF73CFF9C4009024A
:105230006140490001D0401E70BD0124A04370BDF3
:105240006D081DD001202B0C01D12D0410302B0E28
:1052500001D12D0208302B0F01D12D01001DAB0F04
:1052600001D1AD00801CEB0F01D16D00401C361A3E
:10527000121A6D00680AF5054019012A02DB70BD9B
:10528000002070BDC036300AC00770BD1B0E44023E
:1052900001D1FF2B00D1024870BD002AF0D070BDB3
:1052A0000000C07F03B402487844844603BC6047D2
:1052B00095B9FFFF04000008000000000000000294
:1052C00000010000108182838485868788898B8C09
:1052D0008D8E8F919293959697999A9C9D9FA0A25F
:1052E000A3A5A7A8AAACAEB0B2B3B5B7B9BCBEC0AF
:1052F000C2C5C7C9CCCED1D4D7D9DCDFE2E6E9EC50
:10530000F0F3F7FAFE00000002400000000000A0E9
:105310000000000005400000000000C80000000080
:105320000C4000000000409C0000000019400000FC
:105330000020BCBE0000000034400000BFC91B8E2E
:1053400000000004B5400000504BCFD06607E2CF0C
:10535000010000006C4100003E8251AADFEEA7343C
:1053600001000000D9420000DCB5A0E23A301F97EE
:10537000FFFFFFFFB4450000FD25A0C8E9A3C14F12
:10538000FFFFFFFFFF3F0000000000800000000063
:10539000FF3F00000000008000000000000000004F
:1053A00000000000000000000000000000000000FD
:1053B00000000000000000000000000001000000EC
:1053C00002000000030000000400000006000000CE
:1053D00007000000080000000900000000000000B5
:1053E00000000000000000000000000001000000BC
:1053F00002000000030000000400000000000000A4
:1054000000000000002F000000000700070000144B
:105410007F147F1400242A7F2A1200231308646259
:1054200000364955225000000007000000001C22F1
:105430004100000041221C000014083E081400082E
:10544000083E0808000000A06000000808080808DE
:10545000000060600000002010080402003E514976
:10546000453E0000427F4000004261514946002114
:1054700041454B31001814127F100027454545392E
:10548000003C4A4949300001710905030036494989
:10549000493600064949291E000036360000000042
:1054A000563600000008142241000014141414148D
:1054B000000041221408000201510906003E49552E
:1054C000592E007C1211127C007F49494936003E5A
:1054D00041414122007F4141221C007F494949410D
:1054E000007F09090901003E4149497A007F080807
:1054F000087F0000417F4100002040413F01007FC4
:1055000008142241007F40404040007F020C027F8F
:10551000007F0408107F003E4141413E007F0909A1
:105520000906003E4151215E007F091929460046C7
:10553000494949310001017F0101003F4040403F9E
:10554000001F2040201F003F4038403F00631408E8
:1055500014630007087008070061514945430000C3
:105560007F414100000204081020000041417F00FB
:1055700000040201020400404040404000000102DB
:105580000400002054545478007F484444380038C4
:105590004444442000384444487F0038545454184C
:1055A00000087E0901020018A4A4A47C007F08045E
:1055B00004780000447D4000004080847D00007F2E
:1055C000102844000000417F4000007C041804784B
:1055D000007C0804047800384444443800FC242447
:1055E00024180018242418FC007C0804040800482F
:1055F0005454542000043F444020003C4040207C50
:10560000001C2040201C003C4030403C004428103E
:105610002844001CA0A0A07C004464544C4400001A
:10562000087F41000000007F00000000417F08006B
:10563000000804081008000000000000000000003E
:10564000000000000000000000F800000000000062
:1056500000333000000000160E00160E000000009F
:1056600000000000000040C07840C0784000043FC7
:1056700004043F040400007088FC08300000001897
:1056800020FF211E0000F008F000E01800000021BB
:105690001C031E211E0000F00888700000001E215F
:1056A000232419272110000000160E00000000001E
:1056B000000000000000000000E0180402000000EC
:1056C00000071820400000020418E000000000401D
:1056D000201807000000404080F080404000020297
:1056E000010F01020200000000F0000000000101B3
:1056F000011F01010100000000000000000000B0D7
:105700007000000000000000000000000000000128
:105710000101010101010000000000000000003053
:1057200030000000000000000000806018040060ED
:1057300018060100000000E010080810E000000F4B
:10574000102020100F00001010F8000000000020B2
:10575000203F2020000000700808088870000030FA
:1057600028242221300000300888884830000018A2
:10577000202020110E000000C02010F800000007BB
:105780000424243F240000F8088888080800001931
:10579000212020110E0000E0108888180000000F62
:1057A000112020110E0000380808C8380800000039
:1057B000003F000000000070880808887000001C8E
:1057C000222121221C0000E010080810E000000047
:1057D000312222110F00000000C0C00000000000B4
:1057E000003030000000000000C0C00000000000D9
:1057F00080B0700000000000804020100800000110
:105800000204081020004040404040404000040492
:10581000040404040400000810204080000000205C
:10582000100804020100007048080808F000000099
:10583000003036010000C030C828E810E00007182A
:10584000272423140B000000C038E0000000203C97
:1058500023020227382008F8888888700000203F3B
:10586000202020110E00C030080808083800071852
:1058700020202010080008F808080810E000203F49
:10588000202020100F0008F88888E8081000203F2A
:1058900020202320180008F88888E8081000203FFE
:1058A000200003000000C030080808380000071876
:1058B0002020221E020008F808000008F808203FF7
:1058C000210101213F20000808F8080800000020FD
:1058D000203F2020000000000808F8080800C080D1
:1058E00080807F00000008F888C028180800203F4A
:1058F00020012638200008F8080000000000203FA2
:1059000020202020300008F8F800F8F80800203F98
:10591000003F003F200008F830C00008F808203F92
:10592000200007183F00E01008080810E0000F10E2
:10593000202020100F0008F808080808F000203F79
:10594000210101010000E01008080810E0000F1814
:10595000242438504F0008F8888888887000203F39
:105960002000030C30200070880808083800003838
:10597000202121221C00180808F80808180000003F
:10598000203F2000000008F808000008F808001F69
:10599000202020201F000878880000C83808000058
:1059A00007380E010000F80800F80008F800033C72
:1059B0000700073C0300081868808068180820303A
:1059C0002C03032C30200838C800C8380800000019
:1059D000203F2000000010080808C83808002038C0
:1059E000262120201800000000FE02020200000014
:1059F000007F40404000000C30C00000000000006C
:105A000000010638C00000020202FE000000004053
:105A100040407F0000000020100804081020000013
:105A20000000000000000000000000000000808076
:105A30008080808080800002040800000000000058
:105A4000000000000000000080808080000000193D
:105A5000242222223F2008F8008080000000003F1E
:105A6000112020110E000000008080800000000E38
:105A7000112020201100000000808088F800000E16
:105A8000112020103F200000808080800000001F37
:105A9000222222221300008080F0888888180020AB
:105AA000203F202000000000808080808000006B6C
:105AB00094949493600008F8008080800000203F58
:105AC000210000203F200080989800000000002066
:105AD000203F20200000000000809898000000C0B7
